{
    "contractName": "SKCoin",
    "abi": [
        {
            "inputs": [
                {
                    "internalType": "address",
                    "name": "initialOwner",
                    "type": "address"
                }
            ],
            "stateMutability": "nonpayable",
            "type": "constructor"
        },
        {
            "inputs": [
                {
                    "internalType": "address",
                    "name": "spender",
                    "type": "address"
                },
                {
                    "internalType": "uint256",
                    "name": "allowance",
                    "type": "uint256"
                },
                {
                    "internalType": "uint256",
                    "name": "needed",
                    "type": "uint256"
                }
            ],
            "name": "ERC20InsufficientAllowance",
            "type": "error"
        },
        {
            "inputs": [
                {
                    "internalType": "address",
                    "name": "sender",
                    "type": "address"
                },
                {
                    "internalType": "uint256",
                    "name": "balance",
                    "type": "uint256"
                },
                {
                    "internalType": "uint256",
                    "name": "needed",
                    "type": "uint256"
                }
            ],
            "name": "ERC20InsufficientBalance",
            "type": "error"
        },
        {
            "inputs": [
                {
                    "internalType": "address",
                    "name": "approver",
                    "type": "address"
                }
            ],
            "name": "ERC20InvalidApprover",
            "type": "error"
        },
        {
            "inputs": [
                {
                    "internalType": "address",
                    "name": "receiver",
                    "type": "address"
                }
            ],
            "name": "ERC20InvalidReceiver",
            "type": "error"
        },
        {
            "inputs": [
                {
                    "internalType": "address",
                    "name": "sender",
                    "type": "address"
                }
            ],
            "name": "ERC20InvalidSender",
            "type": "error"
        },
        {
            "inputs": [
                {
                    "internalType": "address",
                    "name": "spender",
                    "type": "address"
                }
            ],
            "name": "ERC20InvalidSpender",
            "type": "error"
        },
        {
            "inputs": [
                {
                    "internalType": "address",
                    "name": "owner",
                    "type": "address"
                }
            ],
            "name": "OwnableInvalidOwner",
            "type": "error"
        },
        {
            "inputs": [
                {
                    "internalType": "address",
                    "name": "account",
                    "type": "address"
                }
            ],
            "name": "OwnableUnauthorizedAccount",
            "type": "error"
        },
        {
            "anonymous": false,
            "inputs": [
                {
                    "indexed": true,
                    "internalType": "address",
                    "name": "owner",
                    "type": "address"
                },
                {
                    "indexed": true,
                    "internalType": "address",
                    "name": "spender",
                    "type": "address"
                },
                {
                    "indexed": false,
                    "internalType": "uint256",
                    "name": "value",
                    "type": "uint256"
                }
            ],
            "name": "Approval",
            "type": "event"
        },
        {
            "anonymous": false,
            "inputs": [
                {
                    "indexed": true,
                    "internalType": "uint256",
                    "name": "amount",
                    "type": "uint256"
                },
                {
                    "indexed": true,
                    "internalType": "address",
                    "name": "burner",
                    "type": "address"
                }
            ],
            "name": "Burn",
            "type": "event"
        },
        {
            "anonymous": false,
            "inputs": [
                {
                    "indexed": true,
                    "internalType": "uint256",
                    "name": "amount",
                    "type": "uint256"
                },
                {
                    "indexed": true,
                    "internalType": "address",
                    "name": "minter",
                    "type": "address"
                }
            ],
            "name": "Mint",
            "type": "event"
        },
        {
            "anonymous": false,
            "inputs": [
                {
                    "indexed": true,
                    "internalType": "address",
                    "name": "previousOwner",
                    "type": "address"
                },
                {
                    "indexed": true,
                    "internalType": "address",
                    "name": "newOwner",
                    "type": "address"
                }
            ],
            "name": "OwnershipTransferred",
            "type": "event"
        },
        {
            "anonymous": false,
            "inputs": [
                {
                    "indexed": true,
                    "internalType": "address",
                    "name": "from",
                    "type": "address"
                },
                {
                    "indexed": true,
                    "internalType": "address",
                    "name": "to",
                    "type": "address"
                },
                {
                    "indexed": false,
                    "internalType": "uint256",
                    "name": "value",
                    "type": "uint256"
                }
            ],
            "name": "Transfer",
            "type": "event"
        },
        {
            "inputs": [],
            "name": "_name",
            "outputs": [
                {
                    "internalType": "string",
                    "name": "",
                    "type": "string"
                }
            ],
            "stateMutability": "view",
            "type": "function"
        },
        {
            "inputs": [],
            "name": "_symbol",
            "outputs": [
                {
                    "internalType": "string",
                    "name": "",
                    "type": "string"
                }
            ],
            "stateMutability": "view",
            "type": "function"
        },
        {
            "inputs": [
                {
                    "internalType": "address",
                    "name": "owner",
                    "type": "address"
                },
                {
                    "internalType": "address",
                    "name": "spender",
                    "type": "address"
                }
            ],
            "name": "allowance",
            "outputs": [
                {
                    "internalType": "uint256",
                    "name": "",
                    "type": "uint256"
                }
            ],
            "stateMutability": "view",
            "type": "function"
        },
        {
            "inputs": [
                {
                    "internalType": "address",
                    "name": "spender",
                    "type": "address"
                },
                {
                    "internalType": "uint256",
                    "name": "value",
                    "type": "uint256"
                }
            ],
            "name": "approve",
            "outputs": [
                {
                    "internalType": "bool",
                    "name": "",
                    "type": "bool"
                }
            ],
            "stateMutability": "nonpayable",
            "type": "function"
        },
        {
            "inputs": [
                {
                    "internalType": "address",
                    "name": "account",
                    "type": "address"
                }
            ],
            "name": "balanceOf",
            "outputs": [
                {
                    "internalType": "uint256",
                    "name": "",
                    "type": "uint256"
                }
            ],
            "stateMutability": "view",
            "type": "function"
        },
        {
            "inputs": [
                {
                    "internalType": "uint256",
                    "name": "_amount",
                    "type": "uint256"
                }
            ],
            "name": "burn",
            "outputs": [],
            "stateMutability": "nonpayable",
            "type": "function"
        },
        {
            "inputs": [],
            "name": "decimals",
            "outputs": [
                {
                    "internalType": "uint8",
                    "name": "",
                    "type": "uint8"
                }
            ],
            "stateMutability": "view",
            "type": "function"
        },
        {
            "inputs": [
                {
                    "internalType": "uint256",
                    "name": "_amount",
                    "type": "uint256"
                }
            ],
            "name": "mint",
            "outputs": [],
            "stateMutability": "nonpayable",
            "type": "function"
        },
        {
            "inputs": [],
            "name": "name",
            "outputs": [
                {
                    "internalType": "string",
                    "name": "",
                    "type": "string"
                }
            ],
            "stateMutability": "view",
            "type": "function"
        },
        {
            "inputs": [],
            "name": "owner",
            "outputs": [
                {
                    "internalType": "address",
                    "name": "",
                    "type": "address"
                }
            ],
            "stateMutability": "view",
            "type": "function"
        },
        {
            "inputs": [],
            "name": "renounceOwnership",
            "outputs": [],
            "stateMutability": "nonpayable",
            "type": "function"
        },
        {
            "inputs": [],
            "name": "symbol",
            "outputs": [
                {
                    "internalType": "string",
                    "name": "",
                    "type": "string"
                }
            ],
            "stateMutability": "view",
            "type": "function"
        },
        {
            "inputs": [],
            "name": "totalSupply",
            "outputs": [
                {
                    "internalType": "uint256",
                    "name": "",
                    "type": "uint256"
                }
            ],
            "stateMutability": "view",
            "type": "function"
        },
        {
            "inputs": [
                {
                    "internalType": "address",
                    "name": "to",
                    "type": "address"
                },
                {
                    "internalType": "uint256",
                    "name": "value",
                    "type": "uint256"
                }
            ],
            "name": "transfer",
            "outputs": [
                {
                    "internalType": "bool",
                    "name": "",
                    "type": "bool"
                }
            ],
            "stateMutability": "nonpayable",
            "type": "function"
        },
        {
            "inputs": [
                {
                    "internalType": "address",
                    "name": "from",
                    "type": "address"
                },
                {
                    "internalType": "address",
                    "name": "to",
                    "type": "address"
                },
                {
                    "internalType": "uint256",
                    "name": "value",
                    "type": "uint256"
                }
            ],
            "name": "transferFrom",
            "outputs": [
                {
                    "internalType": "bool",
                    "name": "",
                    "type": "bool"
                }
            ],
            "stateMutability": "nonpayable",
            "type": "function"
        },
        {
            "inputs": [
                {
                    "internalType": "address",
                    "name": "newOwner",
                    "type": "address"
                }
            ],
            "name": "transferOwnership",
            "outputs": [],
            "stateMutability": "nonpayable",
            "type": "function"
        }
    ],
    "bytecode": "608080604052346104c057602081611019803803809161001f82856104c4565b8339810103126104c057516001600160a01b038116908190036104c057604051905f826006549161004f836104e7565b80835292600181169081156104a15750600114610455575b610073925003836104c4565b604051905f8260075491610086836104e7565b808352926001811690811561043657506001146103ea575b6100aa925003836104c4565b82516001600160401b03811161031a576100c56003546104e7565b601f811161039c575b506020601f821160011461033957819293945f9261032e575b50508160011b915f199060031b1c1916176003555b81516001600160401b03811161031a576101176004546104e7565b601f81116102c1575b50602092601f821160011461026057928192935f92610255575b50508160011b915f199060031b1c1916176004555b801561024257600580546001600160a01b0319811683179091556001600160a01b03167f8be0079c531659141344cd1fd0a4f28419497f9722a3daafe3b4186f6b6457e05f80a36101a16006546104e7565b601f8111610217575b50600c6529a5a1b7b4b760d11b016006556007546101c7906104e7565b601f81116101ec575b600662534b4360e81b01600755604051610aa390816105368239f35b60075f5261021190601f0160051c5f516020610fd95f395f51905f529081019061051f565b5f6101d0565b60065f5261023c90601f0160051c5f516020610ff95f395f51905f529081019061051f565b5f6101aa565b631e4fbdf760e01b5f525f60045260245ffd5b015190505f8061013a565b601f1982169360045f52805f20915f5b8681106102a95750836001959610610291575b505050811b0160045561014f565b01515f1960f88460031b161c191690555f8080610283565b91926020600181928685015181550194019201610270565b60045f5261030a907f8a35acfbc15ff81a39ae7d344fd709f28e8600b4aa8c65c6b64bfe7fe36bd19b601f840160051c81019160208510610310575b601f0160051c019061051f565b5f610120565b90915081906102fd565b634e487b7160e01b5f52604160045260245ffd5b015190505f806100e7565b601f1982169060035f52805f20915f5b8181106103845750958360019596971061036c575b505050811b016003556100fc565b01515f1960f88460031b161c191690555f808061035e565b9192602060018192868b015181550194019201610349565b60035f526103e4907fc2575a0e9e593c00f959f8c92f12db2869c3395a3b0502d05e2516446f71f85b601f840160051c8101916020851061031057601f0160051c019061051f565b5f6100ce565b5060075f90815290915f516020610fd95f395f51905f525b81831061041a5750509060206100aa9282010161009e565b6020919350806001915483858901015201910190918492610402565b602092506100aa94915060ff191682840152151560051b82010161009e565b5060065f90815290915f516020610ff95f395f51905f525b81831061048557505090602061007392820101610067565b602091935080600191548385890101520191019091849261046d565b6020925061007394915060ff191682840152151560051b820101610067565b5f80fd5b601f909101601f19168101906001600160401b0382119082101761031a57604052565b90600182811c92168015610515575b602083101461050157565b634e487b7160e01b5f52602260045260245ffd5b91607f16916104f6565b81811061052a575050565b5f815560010161051f56fe60806040526004361015610011575f80fd5b5f3560e01c806306fdde0314610884578063095ea7b31461080257806318160ddd146107e557806323b872dd14610706578063313ce567146106eb57806342966c681461061f57806370a08231146105e8578063715018a61461058d5780638da5cb5b1461056557806395d89b4114610490578063a0712d68146103c7578063a9059cbb14610396578063b09f1266146102c1578063d28d8852146101a3578063dd62ed3e146101535763f2fde38b146100c9575f80fd5b3461014f57602036600319011261014f576100e2610983565b6100ea610a46565b6001600160a01b0316801561013c57600580546001600160a01b0319811683179091556001600160a01b03167f8be0079c531659141344cd1fd0a4f28419497f9722a3daafe3b4186f6b6457e05f80a3005b631e4fbdf760e01b5f525f60045260245ffd5b5f80fd5b3461014f57604036600319011261014f5761016c610983565b610174610999565b6001600160a01b039182165f908152600160209081526040808320949093168252928352819020549051908152f35b3461014f575f36600319011261014f576040515f6006548060011c906001811680156102b7575b6020831081146102a3578285529081156102875750600114610231575b50819003601f01601f191681019067ffffffffffffffff82118183101761021d57604082905281906102199082610959565b0390f35b634e487b7160e01b5f52604160045260245ffd5b60065f9081529091507ff652222313e28459528d920b65115c16c04f3efc82aaedc97be59f3f377c0d3f5b828210610271575060209150820101826101e7565b600181602092548385880101520191019061025c565b90506020925060ff191682840152151560051b820101826101e7565b634e487b7160e01b5f52602260045260245ffd5b91607f16916101ca565b3461014f575f36600319011261014f576040515f6007548060011c9060018116801561038c575b6020831081146102a35782855290811561028757506001146103365750819003601f01601f191681019067ffffffffffffffff82118183101761021d57604082905281906102199082610959565b60075f9081529091507fa66cc928b5edb82af9bd49922954155ab7b0942694bea4ce44661d9a8736c6885b828210610376575060209150820101826101e7565b6001816020925483858801015201910190610361565b91607f16916102e8565b3461014f57604036600319011261014f576103bc6103b2610983565b60243590336109af565b602060405160018152f35b3461014f57602036600319011261014f576004356103e3610a46565b6005546001600160a01b0316801561047d5760025482810180911161046957600255805f525f60205260405f208281540190555f7fddf252ad1be2c89b69c2b068fc378daa952ba7f163c4a11628f55a4df523b3ef6020604051858152a333907ff3cea5493d790af0133817606f7350a91d7f154ea52eaa79d179d4d231e501025f80a3005b634e487b7160e01b5f52601160045260245ffd5b63ec442f0560e01b5f525f60045260245ffd5b3461014f575f36600319011261014f576040515f6004548060011c9060018116801561055b575b6020831081146102a35782855290811561028757506001146105055750819003601f01601f191681019067ffffffffffffffff82118183101761021d57604082905281906102199082610959565b60045f9081529091507f8a35acfbc15ff81a39ae7d344fd709f28e8600b4aa8c65c6b64bfe7fe36bd19b5b828210610545575060209150820101826101e7565b6001816020925483858801015201910190610530565b91607f16916104b7565b3461014f575f36600319011261014f576005546040516001600160a01b039091168152602090f35b3461014f575f36600319011261014f576105a5610a46565b600580546001600160a01b031981169091555f906001600160a01b03167f8be0079c531659141344cd1fd0a4f28419497f9722a3daafe3b4186f6b6457e08280a3005b3461014f57602036600319011261014f576001600160a01b03610609610983565b165f525f602052602060405f2054604051908152f35b3461014f57602036600319011261014f5760043561063b610a46565b33156106d857335f525f6020528060405f20548181106106bf57335f525f6020520360405f205580600254036002555f6040518281527fddf252ad1be2c89b69c2b068fc378daa952ba7f163c4a11628f55a4df523b3ef60203392a333907ff6554c3a5d28e08c120b5a69c7edbaf52f935bd2596a60b8a18e282cd257cddb5f80a3005b63391434e360e21b5f523360045260245260445260645ffd5b634b637e8f60e11b5f525f60045260245ffd5b3461014f575f36600319011261014f57602060405160128152f35b3461014f57606036600319011261014f5761071f610983565b610727610999565b6001600160a01b0382165f818152600160209081526040808320338452909152902054909260443592915f198110610765575b506103bc93506109af565b8381106107ca5784156107b75733156107a4576103bc945f52600160205260405f2060018060a01b0333165f526020528360405f20910390558461075a565b634a1406b160e11b5f525f60045260245ffd5b63e602df0560e01b5f525f60045260245ffd5b8390637dc7a0d960e11b5f523360045260245260445260645ffd5b3461014f575f36600319011261014f576020600254604051908152f35b3461014f57604036600319011261014f5761081b610983565b6024359033156107b7576001600160a01b03169081156107a457335f52600160205260405f20825f526020528060405f20556040519081527f8c5be1e5ebec7d5bd14f71427d1e84f3dd0314c0f7b2291e5b200ac8c7c3b92560203392a3602060405160018152f35b3461014f575f36600319011261014f576040515f6003548060011c9060018116801561094f575b6020831081146102a35782855290811561028757506001146108f95750819003601f01601f191681019067ffffffffffffffff82118183101761021d57604082905281906102199082610959565b60035f9081529091507fc2575a0e9e593c00f959f8c92f12db2869c3395a3b0502d05e2516446f71f85b5b828210610939575060209150820101826101e7565b6001816020925483858801015201910190610924565b91607f16916108ab565b602060409281835280519182918282860152018484015e5f828201840152601f01601f1916010190565b600435906001600160a01b038216820361014f57565b602435906001600160a01b038216820361014f57565b6001600160a01b03169081156106d8576001600160a01b031691821561047d57815f525f60205260405f2054818110610a2d57817fddf252ad1be2c89b69c2b068fc378daa952ba7f163c4a11628f55a4df523b3ef92602092855f525f84520360405f2055845f525f825260405f20818154019055604051908152a3565b8263391434e360e21b5f5260045260245260445260645ffd5b6005546001600160a01b03163303610a5a57565b63118cdaa760e01b5f523360045260245ffdfea2646970667358221220dc412231d6db1e5e81b6e1e57430a5232770dec737577df825323734fd656d2864736f6c634300081c0033a66cc928b5edb82af9bd49922954155ab7b0942694bea4ce44661d9a8736c688f652222313e28459528d920b65115c16c04f3efc82aaedc97be59f3f377c0d3f",
    "sourcePath": "c:/Users/22953/Desktop/NextJS/web3-erc20-demo/contracts/src/SKCoin.sol",
    "compiler": {
        "name": "solc",
        "version": "0.8.28+commit.7893614a"
    },
    "functionHashes": {
        "_name()": "d28d8852",
        "_symbol()": "b09f1266",
        "allowance(address,address)": "dd62ed3e",
        "approve(address,uint256)": "095ea7b3",
        "balanceOf(address)": "70a08231",
        "burn(uint256)": "42966c68",
        "decimals()": "313ce567",
        "mint(uint256)": "a0712d68",
        "name()": "06fdde03",
        "owner()": "8da5cb5b",
        "renounceOwnership()": "715018a6",
        "symbol()": "95d89b41",
        "totalSupply()": "18160ddd",
        "transfer(address,uint256)": "a9059cbb",
        "transferFrom(address,address,uint256)": "23b872dd",
        "transferOwnership(address)": "f2fde38b"
    },
    "gasEstimates": {
        "creation": {
            "codeDepositCost": "544600",
            "executionCost": "infinite",
            "totalCost": "infinite"
        },
        "external": {
            "_name()": "infinite",
            "_symbol()": "infinite",
            "allowance(address,address)": "2873",
            "approve(address,uint256)": "24317",
            "balanceOf(address)": "2529",
            "burn(uint256)": "54286",
            "decimals()": "233",
            "mint(uint256)": "56461",
            "name()": "infinite",
            "owner()": "2448",
            "renounceOwnership()": "28206",
            "symbol()": "infinite",
            "totalSupply()": "2292",
            "transfer(address,uint256)": "50988",
            "transferFrom(address,address,uint256)": "75515",
            "transferOwnership(address)": "28490"
        }
    }
}