{
  "abi": [
    {
      "type": "constructor",
      "inputs": [
        {
          "name": "initialOwner",
          "type": "address",
          "internalType": "address"
        }
      ],
      "stateMutability": "nonpayable"
    },
    {
      "type": "function",
      "name": "_name",
      "inputs": [],
      "outputs": [
        {
          "name": "",
          "type": "string",
          "internalType": "string"
        }
      ],
      "stateMutability": "view"
    },
    {
      "type": "function",
      "name": "_symbol",
      "inputs": [],
      "outputs": [
        {
          "name": "",
          "type": "string",
          "internalType": "string"
        }
      ],
      "stateMutability": "view"
    },
    {
      "type": "function",
      "name": "allowance",
      "inputs": [
        {
          "name": "owner",
          "type": "address",
          "internalType": "address"
        },
        {
          "name": "spender",
          "type": "address",
          "internalType": "address"
        }
      ],
      "outputs": [
        {
          "name": "",
          "type": "uint256",
          "internalType": "uint256"
        }
      ],
      "stateMutability": "view"
    },
    {
      "type": "function",
      "name": "approve",
      "inputs": [
        {
          "name": "spender",
          "type": "address",
          "internalType": "address"
        },
        {
          "name": "value",
          "type": "uint256",
          "internalType": "uint256"
        }
      ],
      "outputs": [
        {
          "name": "",
          "type": "bool",
          "internalType": "bool"
        }
      ],
      "stateMutability": "nonpayable"
    },
    {
      "type": "function",
      "name": "balanceOf",
      "inputs": [
        {
          "name": "account",
          "type": "address",
          "internalType": "address"
        }
      ],
      "outputs": [
        {
          "name": "",
          "type": "uint256",
          "internalType": "uint256"
        }
      ],
      "stateMutability": "view"
    },
    {
      "type": "function",
      "name": "burn",
      "inputs": [
        {
          "name": "_amount",
          "type": "uint256",
          "internalType": "uint256"
        }
      ],
      "outputs": [],
      "stateMutability": "nonpayable"
    },
    {
      "type": "function",
      "name": "decimals",
      "inputs": [],
      "outputs": [
        {
          "name": "",
          "type": "uint8",
          "internalType": "uint8"
        }
      ],
      "stateMutability": "view"
    },
    {
      "type": "function",
      "name": "mint",
      "inputs": [
        {
          "name": "_amount",
          "type": "uint256",
          "internalType": "uint256"
        }
      ],
      "outputs": [],
      "stateMutability": "nonpayable"
    },
    {
      "type": "function",
      "name": "name",
      "inputs": [],
      "outputs": [
        {
          "name": "",
          "type": "string",
          "internalType": "string"
        }
      ],
      "stateMutability": "view"
    },
    {
      "type": "function",
      "name": "owner",
      "inputs": [],
      "outputs": [
        {
          "name": "",
          "type": "address",
          "internalType": "address"
        }
      ],
      "stateMutability": "view"
    },
    {
      "type": "function",
      "name": "renounceOwnership",
      "inputs": [],
      "outputs": [],
      "stateMutability": "nonpayable"
    },
    {
      "type": "function",
      "name": "symbol",
      "inputs": [],
      "outputs": [
        {
          "name": "",
          "type": "string",
          "internalType": "string"
        }
      ],
      "stateMutability": "view"
    },
    {
      "type": "function",
      "name": "totalSupply",
      "inputs": [],
      "outputs": [
        {
          "name": "",
          "type": "uint256",
          "internalType": "uint256"
        }
      ],
      "stateMutability": "view"
    },
    {
      "type": "function",
      "name": "transfer",
      "inputs": [
        {
          "name": "to",
          "type": "address",
          "internalType": "address"
        },
        {
          "name": "value",
          "type": "uint256",
          "internalType": "uint256"
        }
      ],
      "outputs": [
        {
          "name": "",
          "type": "bool",
          "internalType": "bool"
        }
      ],
      "stateMutability": "nonpayable"
    },
    {
      "type": "function",
      "name": "transferFrom",
      "inputs": [
        {
          "name": "from",
          "type": "address",
          "internalType": "address"
        },
        {
          "name": "to",
          "type": "address",
          "internalType": "address"
        },
        {
          "name": "value",
          "type": "uint256",
          "internalType": "uint256"
        }
      ],
      "outputs": [
        {
          "name": "",
          "type": "bool",
          "internalType": "bool"
        }
      ],
      "stateMutability": "nonpayable"
    },
    {
      "type": "function",
      "name": "transferOwnership",
      "inputs": [
        {
          "name": "newOwner",
          "type": "address",
          "internalType": "address"
        }
      ],
      "outputs": [],
      "stateMutability": "nonpayable"
    },
    {
      "type": "event",
      "name": "Approval",
      "inputs": [
        {
          "name": "owner",
          "type": "address",
          "indexed": true,
          "internalType": "address"
        },
        {
          "name": "spender",
          "type": "address",
          "indexed": true,
          "internalType": "address"
        },
        {
          "name": "value",
          "type": "uint256",
          "indexed": false,
          "internalType": "uint256"
        }
      ],
      "anonymous": false
    },
    {
      "type": "event",
      "name": "Burn",
      "inputs": [
        {
          "name": "amount",
          "type": "uint256",
          "indexed": true,
          "internalType": "uint256"
        },
        {
          "name": "burner",
          "type": "address",
          "indexed": true,
          "internalType": "address"
        }
      ],
      "anonymous": false
    },
    {
      "type": "event",
      "name": "Mint",
      "inputs": [
        {
          "name": "amount",
          "type": "uint256",
          "indexed": true,
          "internalType": "uint256"
        },
        {
          "name": "minter",
          "type": "address",
          "indexed": true,
          "internalType": "address"
        }
      ],
      "anonymous": false
    },
    {
      "type": "event",
      "name": "OwnershipTransferred",
      "inputs": [
        {
          "name": "previousOwner",
          "type": "address",
          "indexed": true,
          "internalType": "address"
        },
        {
          "name": "newOwner",
          "type": "address",
          "indexed": true,
          "internalType": "address"
        }
      ],
      "anonymous": false
    },
    {
      "type": "event",
      "name": "Transfer",
      "inputs": [
        {
          "name": "from",
          "type": "address",
          "indexed": true,
          "internalType": "address"
        },
        {
          "name": "to",
          "type": "address",
          "indexed": true,
          "internalType": "address"
        },
        {
          "name": "value",
          "type": "uint256",
          "indexed": false,
          "internalType": "uint256"
        }
      ],
      "anonymous": false
    },
    {
      "type": "error",
      "name": "ERC20InsufficientAllowance",
      "inputs": [
        {
          "name": "spender",
          "type": "address",
          "internalType": "address"
        },
        {
          "name": "allowance",
          "type": "uint256",
          "internalType": "uint256"
        },
        {
          "name": "needed",
          "type": "uint256",
          "internalType": "uint256"
        }
      ]
    },
    {
      "type": "error",
      "name": "ERC20InsufficientBalance",
      "inputs": [
        {
          "name": "sender",
          "type": "address",
          "internalType": "address"
        },
        {
          "name": "balance",
          "type": "uint256",
          "internalType": "uint256"
        },
        {
          "name": "needed",
          "type": "uint256",
          "internalType": "uint256"
        }
      ]
    },
    {
      "type": "error",
      "name": "ERC20InvalidApprover",
      "inputs": [
        {
          "name": "approver",
          "type": "address",
          "internalType": "address"
        }
      ]
    },
    {
      "type": "error",
      "name": "ERC20InvalidReceiver",
      "inputs": [
        {
          "name": "receiver",
          "type": "address",
          "internalType": "address"
        }
      ]
    },
    {
      "type": "error",
      "name": "ERC20InvalidSender",
      "inputs": [
        {
          "name": "sender",
          "type": "address",
          "internalType": "address"
        }
      ]
    },
    {
      "type": "error",
      "name": "ERC20InvalidSpender",
      "inputs": [
        {
          "name": "spender",
          "type": "address",
          "internalType": "address"
        }
      ]
    },
    {
      "type": "error",
      "name": "OwnableInvalidOwner",
      "inputs": [
        {
          "name": "owner",
          "type": "address",
          "internalType": "address"
        }
      ]
    },
    {
      "type": "error",
      "name": "OwnableUnauthorizedAccount",
      "inputs": [
        {
          "name": "account",
          "type": "address",
          "internalType": "address"
        }
      ]
    }
  ],
  "bytecode": {
    "object": "0x60806040526040518060400160405280600681526020017f534b436f696e0000000000000000000000000000000000000000000000000000815250600690816100489190610576565b506040518060400160405280600381526020017f534b4300000000000000000000000000000000000000000000000000000000008152506007908161008d9190610576565b50348015610099575f5ffd5b50604051611b22380380611b2283398181016040528101906100bb91906106a3565b80600680546100c99061039d565b80601f01602080910402602001604051908101604052809291908181526020018280546100f59061039d565b80156101405780601f1061011757610100808354040283529160200191610140565b820191905f5260205f20905b81548152906001019060200180831161012357829003601f168201915b5050505050600780546101529061039d565b80601f016020809104026020016040519081016040528092919081815260200182805461017e9061039d565b80156101c95780601f106101a0576101008083540402835291602001916101c9565b820191905f5260205f20905b8154815290600101906020018083116101ac57829003601f168201915b505050505081600390816101dd9190610576565b5080600490816101ed9190610576565b5050505f73ffffffffffffffffffffffffffffffffffffffff168173ffffffffffffffffffffffffffffffffffffffff1603610260575f6040517f1e4fbdf700000000000000000000000000000000000000000000000000000000815260040161025791906106dd565b60405180910390fd5b61026f8161027660201b60201c565b50506106f6565b5f60055f9054906101000a900473ffffffffffffffffffffffffffffffffffffffff1690508160055f6101000a81548173ffffffffffffffffffffffffffffffffffffffff021916908373ffffffffffffffffffffffffffffffffffffffff1602179055508173ffffffffffffffffffffffffffffffffffffffff168173ffffffffffffffffffffffffffffffffffffffff167f8be0079c531659141344cd1fd0a4f28419497f9722a3daafe3b4186f6b6457e060405160405180910390a35050565b5f81519050919050565b7f4e487b71000000000000000000000000000000000000000000000000000000005f52604160045260245ffd5b7f4e487b71000000000000000000000000000000000000000000000000000000005f52602260045260245ffd5b5f60028204905060018216806103b457607f821691505b6020821081036103c7576103c6610370565b5b50919050565b5f819050815f5260205f209050919050565b5f6020601f8301049050919050565b5f82821b905092915050565b5f600883026104297fffffffffffffffffffffffffffffffffffffffffffffffffffffffffffffffff826103ee565b61043386836103ee565b95508019841693508086168417925050509392505050565b5f819050919050565b5f819050919050565b5f61047761047261046d8461044b565b610454565b61044b565b9050919050565b5f819050919050565b6104908361045d565b6104a461049c8261047e565b8484546103fa565b825550505050565b5f5f905090565b6104bb6104ac565b6104c6818484610487565b505050565b5b818110156104e9576104de5f826104b3565b6001810190506104cc565b5050565b601f82111561052e576104ff816103cd565b610508846103df565b81016020851015610517578190505b61052b610523856103df565b8301826104cb565b50505b505050565b5f82821c905092915050565b5f61054e5f1984600802610533565b1980831691505092915050565b5f610566838361053f565b9150826002028217905092915050565b61057f82610339565b67ffffffffffffffff81111561059857610597610343565b5b6105a2825461039d565b6105ad8282856104ed565b5f60209050601f8311600181146105de575f84156105cc578287015190505b6105d6858261055b565b86555061063d565b601f1984166105ec866103cd565b5f5b82811015610613578489015182556001820191506020850194506020810190506105ee565b86831015610630578489015161062c601f89168261053f565b8355505b6001600288020188555050505b505050505050565b5f5ffd5b5f73ffffffffffffffffffffffffffffffffffffffff82169050919050565b5f61067282610649565b9050919050565b61068281610668565b811461068c575f5ffd5b50565b5f8151905061069d81610679565b92915050565b5f602082840312156106b8576106b7610645565b5b5f6106c58482850161068f565b91505092915050565b6106d781610668565b82525050565b5f6020820190506106f05f8301846106ce565b92915050565b61141f806107035f395ff3fe608060405234801561000f575f5ffd5b50600436106100fe575f3560e01c80638da5cb5b11610095578063b09f126611610064578063b09f12661461029a578063d28d8852146102b8578063dd62ed3e146102d6578063f2fde38b14610306576100fe565b80638da5cb5b1461021257806395d89b4114610230578063a0712d681461024e578063a9059cbb1461026a576100fe565b8063313ce567116100d1578063313ce5671461019e57806342966c68146101bc57806370a08231146101d8578063715018a614610208576100fe565b806306fdde0314610102578063095ea7b31461012057806318160ddd1461015057806323b872dd1461016e575b5f5ffd5b61010a610322565b604051610117919061106d565b60405180910390f35b61013a6004803603810190610135919061111e565b6103b2565b6040516101479190611176565b60405180910390f35b6101586103d4565b604051610165919061119e565b60405180910390f35b610188600480360381019061018391906111b7565b6103dd565b6040516101959190611176565b60405180910390f35b6101a661040b565b6040516101b39190611222565b60405180910390f35b6101d660048036038101906101d1919061123b565b610413565b005b6101f260048036038101906101ed9190611266565b61047a565b6040516101ff919061119e565b60405180910390f35b6102106104bf565b005b61021a6104d2565b60405161022791906112a0565b60405180910390f35b6102386104fa565b604051610245919061106d565b60405180910390f35b6102686004803603810190610263919061123b565b61058a565b005b610284600480360381019061027f919061111e565b6105f1565b6040516102919190611176565b60405180910390f35b6102a2610613565b6040516102af919061106d565b60405180910390f35b6102c061069f565b6040516102cd919061106d565b60405180910390f35b6102f060048036038101906102eb91906112b9565b61072b565b6040516102fd919061119e565b60405180910390f35b610320600480360381019061031b9190611266565b6107ad565b005b60606003805461033190611324565b80601f016020809104026020016040519081016040528092919081815260200182805461035d90611324565b80156103a85780601f1061037f576101008083540402835291602001916103a8565b820191905f5260205f20905b81548152906001019060200180831161038b57829003601f168201915b5050505050905090565b5f5f6103bc610831565b90506103c9818585610838565b600191505092915050565b5f600254905090565b5f5f6103e7610831565b90506103f485828561084a565b6103ff8585856108dd565b60019150509392505050565b5f6012905090565b61041b6109cd565b61042c610426610831565b82610a54565b610434610831565b73ffffffffffffffffffffffffffffffffffffffff16817ff6554c3a5d28e08c120b5a69c7edbaf52f935bd2596a60b8a18e282cd257cddb60405160405180910390a350565b5f5f5f8373ffffffffffffffffffffffffffffffffffffffff1673ffffffffffffffffffffffffffffffffffffffff1681526020019081526020015f20549050919050565b6104c76109cd565b6104d05f610ad3565b565b5f60055f9054906101000a900473ffffffffffffffffffffffffffffffffffffffff16905090565b60606004805461050990611324565b80601f016020809104026020016040519081016040528092919081815260200182805461053590611324565b80156105805780601f1061055757610100808354040283529160200191610580565b820191905f5260205f20905b81548152906001019060200180831161056357829003601f168201915b5050505050905090565b6105926109cd565b6105a361059d6104d2565b82610b96565b6105ab610831565b73ffffffffffffffffffffffffffffffffffffffff16817ff3cea5493d790af0133817606f7350a91d7f154ea52eaa79d179d4d231e5010260405160405180910390a350565b5f5f6105fb610831565b90506106088185856108dd565b600191505092915050565b6007805461062090611324565b80601f016020809104026020016040519081016040528092919081815260200182805461064c90611324565b80156106975780601f1061066e57610100808354040283529160200191610697565b820191905f5260205f20905b81548152906001019060200180831161067a57829003601f168201915b505050505081565b600680546106ac90611324565b80601f01602080910402602001604051908101604052809291908181526020018280546106d890611324565b80156107235780601f106106fa57610100808354040283529160200191610723565b820191905f5260205f20905b81548152906001019060200180831161070657829003601f168201915b505050505081565b5f60015f8473ffffffffffffffffffffffffffffffffffffffff1673ffffffffffffffffffffffffffffffffffffffff1681526020019081526020015f205f8373ffffffffffffffffffffffffffffffffffffffff1673ffffffffffffffffffffffffffffffffffffffff1681526020019081526020015f2054905092915050565b6107b56109cd565b5f73ffffffffffffffffffffffffffffffffffffffff168173ffffffffffffffffffffffffffffffffffffffff1603610825575f6040517f1e4fbdf700000000000000000000000000000000000000000000000000000000815260040161081c91906112a0565b60405180910390fd5b61082e81610ad3565b50565b5f33905090565b6108458383836001610c15565b505050565b5f610855848461072b565b90507fffffffffffffffffffffffffffffffffffffffffffffffffffffffffffffffff8110156108d757818110156108c8578281836040517ffb8f41b20000000000000000000000000000000000000000000000000000000081526004016108bf93929190611354565b60405180910390fd5b6108d684848484035f610c15565b5b50505050565b5f73ffffffffffffffffffffffffffffffffffffffff168373ffffffffffffffffffffffffffffffffffffffff160361094d575f6040517f96c6fd1e00000000000000000000000000000000000000000000000000000000815260040161094491906112a0565b60405180910390fd5b5f73ffffffffffffffffffffffffffffffffffffffff168273ffffffffffffffffffffffffffffffffffffffff16036109bd575f6040517fec442f050000000000000000000000000000000000000000000000000000000081526004016109b491906112a0565b60405180910390fd5b6109c8838383610de4565b505050565b6109d5610831565b73ffffffffffffffffffffffffffffffffffffffff166109f36104d2565b73ffffffffffffffffffffffffffffffffffffffff1614610a5257610a16610831565b6040517f118cdaa7000000000000000000000000000000000000000000000000000000008152600401610a4991906112a0565b60405180910390fd5b565b5f73ffffffffffffffffffffffffffffffffffffffff168273ffffffffffffffffffffffffffffffffffffffff1603610ac4575f6040517f96c6fd1e000000000000000000000000000000000000000000000000000000008152600401610abb91906112a0565b60405180910390fd5b610acf825f83610de4565b5050565b5f60055f9054906101000a900473ffffffffffffffffffffffffffffffffffffffff1690508160055f6101000a81548173ffffffffffffffffffffffffffffffffffffffff021916908373ffffffffffffffffffffffffffffffffffffffff1602179055508173ffffffffffffffffffffffffffffffffffffffff168173ffffffffffffffffffffffffffffffffffffffff167f8be0079c531659141344cd1fd0a4f28419497f9722a3daafe3b4186f6b6457e060405160405180910390a35050565b5f73ffffffffffffffffffffffffffffffffffffffff168273ffffffffffffffffffffffffffffffffffffffff1603610c06575f6040517fec442f05000000000000000000000000000000000000000000000000000000008152600401610bfd91906112a0565b60405180910390fd5b610c115f8383610de4565b5050565b5f73ffffffffffffffffffffffffffffffffffffffff168473ffffffffffffffffffffffffffffffffffffffff1603610c85575f6040517fe602df05000000000000000000000000000000000000000000000000000000008152600401610c7c91906112a0565b60405180910390fd5b5f73ffffffffffffffffffffffffffffffffffffffff168373ffffffffffffffffffffffffffffffffffffffff1603610cf5575f6040517f94280d62000000000000000000000000000000000000000000000000000000008152600401610cec91906112a0565b60405180910390fd5b8160015f8673ffffffffffffffffffffffffffffffffffffffff1673ffffffffffffffffffffffffffffffffffffffff1681526020019081526020015f205f8573ffffffffffffffffffffffffffffffffffffffff1673ffffffffffffffffffffffffffffffffffffffff1681526020019081526020015f20819055508015610dde578273ffffffffffffffffffffffffffffffffffffffff168473ffffffffffffffffffffffffffffffffffffffff167f8c5be1e5ebec7d5bd14f71427d1e84f3dd0314c0f7b2291e5b200ac8c7c3b92584604051610dd5919061119e565b60405180910390a35b50505050565b5f73ffffffffffffffffffffffffffffffffffffffff168373ffffffffffffffffffffffffffffffffffffffff1603610e34578060025f828254610e2891906113b6565b92505081905550610f02565b5f5f5f8573ffffffffffffffffffffffffffffffffffffffff1673ffffffffffffffffffffffffffffffffffffffff1681526020019081526020015f2054905081811015610ebd578381836040517fe450d38c000000000000000000000000000000000000000000000000000000008152600401610eb493929190611354565b60405180910390fd5b8181035f5f8673ffffffffffffffffffffffffffffffffffffffff1673ffffffffffffffffffffffffffffffffffffffff1681526020019081526020015f2081905550505b5f73ffffffffffffffffffffffffffffffffffffffff168273ffffffffffffffffffffffffffffffffffffffff1603610f49578060025f8282540392505081905550610f93565b805f5f8473ffffffffffffffffffffffffffffffffffffffff1673ffffffffffffffffffffffffffffffffffffffff1681526020019081526020015f205f82825401925050819055505b8173ffffffffffffffffffffffffffffffffffffffff168373ffffffffffffffffffffffffffffffffffffffff167fddf252ad1be2c89b69c2b068fc378daa952ba7f163c4a11628f55a4df523b3ef83604051610ff0919061119e565b60405180910390a3505050565b5f81519050919050565b5f82825260208201905092915050565b8281835e5f83830152505050565b5f601f19601f8301169050919050565b5f61103f82610ffd565b6110498185611007565b9350611059818560208601611017565b61106281611025565b840191505092915050565b5f6020820190508181035f8301526110858184611035565b905092915050565b5f5ffd5b5f73ffffffffffffffffffffffffffffffffffffffff82169050919050565b5f6110ba82611091565b9050919050565b6110ca816110b0565b81146110d4575f5ffd5b50565b5f813590506110e5816110c1565b92915050565b5f819050919050565b6110fd816110eb565b8114611107575f5ffd5b50565b5f81359050611118816110f4565b92915050565b5f5f604083850312156111345761113361108d565b5b5f611141858286016110d7565b92505060206111528582860161110a565b9150509250929050565b5f8115159050919050565b6111708161115c565b82525050565b5f6020820190506111895f830184611167565b92915050565b611198816110eb565b82525050565b5f6020820190506111b15f83018461118f565b92915050565b5f5f5f606084860312156111ce576111cd61108d565b5b5f6111db868287016110d7565b93505060206111ec868287016110d7565b92505060406111fd8682870161110a565b9150509250925092565b5f60ff82169050919050565b61121c81611207565b82525050565b5f6020820190506112355f830184611213565b92915050565b5f602082840312156112505761124f61108d565b5b5f61125d8482850161110a565b91505092915050565b5f6020828403121561127b5761127a61108d565b5b5f611288848285016110d7565b91505092915050565b61129a816110b0565b82525050565b5f6020820190506112b35f830184611291565b92915050565b5f5f604083850312156112cf576112ce61108d565b5b5f6112dc858286016110d7565b92505060206112ed858286016110d7565b9150509250929050565b7f4e487b71000000000000000000000000000000000000000000000000000000005f52602260045260245ffd5b5f600282049050600182168061133b57607f821691505b60208210810361134e5761134d6112f7565b5b50919050565b5f6060820190506113675f830186611291565b611374602083018561118f565b611381604083018461118f565b949350505050565b7f4e487b71000000000000000000000000000000000000000000000000000000005f52601160045260245ffd5b5f6113c0826110eb565b91506113cb836110eb565b92508282019050808211156113e3576113e2611389565b5b9291505056fea26469706673582212208b04f3798a1674608c48dc77e3ac34f7e4b6035723be1b2415fc2e42488f19f664736f6c634300081c0033",
    "linkReferences": {}
  },
  "methodIdentifiers": {
    "_name()": "d28d8852",
    "_symbol()": "b09f1266",
    "allowance(address,address)": "dd62ed3e",
    "approve(address,uint256)": "095ea7b3",
    "balanceOf(address)": "70a08231",
    "burn(uint256)": "42966c68",
    "decimals()": "313ce567",
    "mint(uint256)": "a0712d68",
    "name()": "06fdde03",
    "owner()": "8da5cb5b",
    "renounceOwnership()": "715018a6",
    "symbol()": "95d89b41",
    "totalSupply()": "18160ddd",
    "transfer(address,uint256)": "a9059cbb",
    "transferFrom(address,address,uint256)": "23b872dd",
    "transferOwnership(address)": "f2fde38b"
  },
  "id": 29
}